:0A04000000008231032A8731BF2F6C
:100F7E002000C12FD42787310B30F2002630F1002C
:100F8E006630F000F00BC92FF10BC92FF20BC92FF1
:100F9E000032013022008E06C32FD7278731DF2F74
:100FAE007030210099009A0198011A1B0800DC2F5D
:100FBE0022008C01373021008C00173023008C006A
:100FCE0024008C0122008D01F03021008D00303084
:100FDE0023008D0024008D0122008E01FE302100A1
:100FEE008E00CE3023008E0024008E012100951736
:020FFE000800E9
:020000040001F9
:04000E00A4FFFFDF6D
:00000001FF
